:020000040800F2
:10000000008000209914000881140008831400085F
:1000100085140008871400088914000800000000F7
:100020000000000000000000000000008B14000829
:100030008D140008000000008F14000891140008BF
:10004000E9140008E9140008E9140008E91400089C
:10005000E9140008E9140008E9140008E91400088C
:10006000E9140008E9140008E9140008E91400087C
:10007000E9140008E9140008E9140008E91400086C
:10008000E914000800000000E9140008E914000861
:10009000E9140008E9140008E9140008E91400084C
:1000A000E9140008E9140008E9140008E91400083C
:1000B000E9140008E9140008E9140008E91400082C
:1000C000E9140008E9140008E9140008E91400081C
:1000D000E9140008E9140008E9140008E91400080C
:1000E000E9140008E9140008E9140008E9140008FC
:1000F000E9140008E9140008E914000800000000F1
:1001000000000000E914000800000000E9140008E5
:10011000E914000800000000E9140008E9140008D0
:10012000E9140008E9140008E9140008E9140008BB
:10013000E91400080000000000000000B10D0008F4
:10014000E9140008E91400080000000000000000A5
:10015000000000000000000000000000000000009F
:10016000000000000000000000000000E91400088A
:10017000E91400080000000000000000000000007A
:1001800000000000E914000800000000000000006A
:10019000000000000000000000000000000000005F
:1001A0000000000000000000E9140008E914000845
:1001B000E9140008E9140008E91400080000000030
:1001C00000000000E914000800000000000000002A
:0801D000E9140008E91400081D
:1001D80053B94AB9002908BF00281CBF4FF0FF31A6
:1001E8004FF0FF3000F00CB8ADF1080C6DE904CE0B
:1001F80003F08AFFDDF804E0DDE9022304B070476C
:10020800704700BF0348044B834202D0034B03B13D
:100218001847704794000020940000200000000058
:100228000548064B1B1AD90F01EBA301491002D050
:10023800034B03B118477047940000209400002036
:100248000000000010B5064C237843B9FFF7DAFF29
:10025800044B13B10448AFF300800123237010BD91
:1002680094000020000000009045000808B5054BE8
:100278001BB105490548AFF30080BDE80840FFF70A
:10028800CFBF00BF00000000980000209045000884
:100298002DE9F041002000F06BF9214B214C1E782C
:1002A800214D06BB28782C27784333462058324600
:1002B800022100F04FF92B7803220133B3FBF2F24D
:1002C80002EB42029B1A07FB03F001223346205837
:1002D800022100F03FF901233246BDE8F0411348FE
:1002E800002100F037B92B7803220233B3FBF2F276
:1002F80002EB42029B1A2C2606FB03F000231A4647
:100308002058022100F026F92878704300230122A2
:100318002058022100F01EF901231A46DDE700BF2C
:10032800B000002000000020B1000020C0450008F7
:1003380008B5094B01221A70802100224FF0904025
:1003480001F05EFF054A00231370054A1370BDE8EB
:100358000840FFF79DBF00BFB2000020B100002099
:10036800B000002070B500F0ADF8032804462ED088
:100378001C4E3578012D2BD1012812D0022814D01B
:1003880028BB19490B7802330322B3FBF2F202EBC4
:1003980042029B1A0B70154B1C70BDE87040FFF7AA
:1003A80077BF11490B780133EEE72A4680214FF0D9
:1003B800904001F025FF284600F0DAF80A4B18783B
:1003C8000B4B2C2200FB023000F058FA347070BD41
:1003D800022DFCD10228FAD100F070FABDE8704075
:1003E800FFF7A6BFB2000020B1000020B000002037
:1003F8000000002038B51A4D01F0B6F82B780446F5
:1004080023B900F045FCD0B1FFF792FF2B78022BFF
:1004180007D100F05DFA01281ED0022801D103237C
:100428002B70104DFFF79EFF2B68E31AB3F57A7F08
:1004380004D90D48012101F0E8FE2C6038BD0B4BB2
:100448001B68E31AB3F5FA6FE0D903230849094892
:100458002B7000F06BF8D9E7FFF76AFFE1E700BF00
:10046800B2000020B400002000040048B8000020BA
:10047800C3450008CF45000808B500F051F80C4BFB
:1004880000221A7001F070F80A4B0B4918600B48EB
:1004980000F04CF841F2883144F6206000F0E4FBAB
:1004A80007480C2103F032FABDE8084000F006BA0C
:1004B800B2000020B8000020DF450008F045000821
:1004C800C40300202DE9F041134F144D00244FF0D0
:1004D800010817F8011B4FF0904001F08BFE06460B
:1004E80001F042F8E3002B4436B91E710134032CA5
:1004F800EFD12046BDE8F0811A79012A02D145F8EA
:100508003400F3E783F8048055F83430C31A632BBA
:10051800F5D9E0B2EEE700BF82460008BC00002033
:10052800014800F073B800BF1004002010B5002285
:100538000C460123114600F047F9012320461A46CC
:10054800002100F041F9BDE81040014800F038B83A
:100558001004002010B51C46002300F035F924B122
:10056800BDE81040014800F02BB810BD1004002071
:1005780010B5044600F01CF824B1BDE8104002484C
:1005880000F01EB810BD00BF100400207FB5012385
:100598000A22CDE901320DF117028DF817100092E9
:1005A8007821002201F0C2FF07B05DF804FB0000CB
:1005B80002484FF40072002103F004BFD400002069
:1005C800F0B5114E85B00546B0246427214628466B
:1005D800FFF7DCFF00212846FFF7D8FF1021284647
:1005E800FFF7D4FF01348023CDE90063029701238C
:1005F800402278212846E4B201F098FFB82C06F191
:100608008006E3D105B0F0BDD400002038B504461B
:10061800642000F0AFFFAE212046FFF7B7FF20218E
:1006280005462046FFF7B2FF102105442046FFF794
:10063800ADFFB02105442046FFF7A8FFC8210544B7
:100648002046FFF7A3FF002105442046FFF79EFF41
:10065800102105442046FFF799FF40210544204614
:10066800FFF794FF812105442046FFF78FFFFF2104
:1006780005442046FFF78AFFA12105442046FFF7DD
:1006880085FFA62105442046FFF780FFA8210544E1
:100698002046FFF77BFF1F2105442046FFF776FF22
:1006A800A42105442046FFF771FFD32105442046C5
:1006B800FFF76CFF002105442046FFF767FFD521AF
:1006C80005442046FFF762FFF02105442046FFF766
:1006D8005DFFD92105442046FFF758FF2221054434
:1006E8002046FFF753FFDA2105442046FFF74EFF67
:1006F800022105442046FFF749FFDB210544204637
:10070800FFF744FF202105442046FFF73FFF8D21D6
:1007180005442046FFF73AFF142105442046FFF719
:1007280035FFAF2105442046FFF730FF451906D1B4
:10073800FFF73EFF2046FFF743FF284638BD01205C
:10074800FCE70000030630B50ED41F290CD8CB08EF
:10075800074D00EBC31001F0070101242B5C04FADC
:1007680001F112B10B432B5430BD23EA0103FAE720
:10077800D4000020124B2DE9F047124E03EB401332
:100788000F4690461E44002408EB040536F802AFD5
:100798004FF00009EDB20AFA09F207EB0900C2F3BB
:1007A800C0322946C0B209F10109FFF7CBFFB9F100
:1007B800080FF0D10134E4B2102CE5D1BDE8F08780
:1007C800FEFBFFFF864600082DE9F041C9004FEA0D
:1007D800021815461F465FFA88F8CCB2461E16F86E
:1007E800010F58B9EFB1104A6B00214602EB052200
:1007F8000D060AD450540131C9B2F9E721464246E0
:100808000834FFF7B7FFE4B2E9E70133DB01064834
:100818009BB20021220604D402190134D154E4B257
:10082800F8E7BDE8F08100BFD400002020EAE070BE
:10083800044B6428A8BF64201870034B1B68186415
:10084800704700BFD4020020C4030020642210B502
:10085800B1FBF2F303F1300402FB1313DBB20A22FB
:10086800B3FBF2F330334370B1FBF2F302FB131125
:100878003031002304708170C37010BD08B50A4B75
:1008880018600A4B00221A7000F06EFE084B1860C0
:10089800084B186000F034F9074B1870BDE80840A1
:1008A8003220FFF7C3BF00BFE8020020E4020020A7
:1008B800DC020020E0020020D502002008B500205C
:1008C800FFF7B4FF014B00221A6008BDE8020020C0
:1008D8002DE9F04F7C4F3B6885B0002B00F0B780C6
:1008E80000F00EF9DFF8E491DFF8E4A1DFF8E48125
:1008F800044600F039FED9F8005098F800B04FF4DB
:100908007A73451BB5FBF3F53B680093DAF80030C2
:10091800C31AB3F5FA7F0646EDB240D9009B6E487C
:1009280003EBCB035B68019300231A461946FFF7D4
:1009380011FE00231A4601980521FFF70BFE03A8B4
:100948002146FFF783FF002319460122FFF702FE25
:100958000023012261480321FFF7FCFD03A8294673
:10096800FFF774FF002301220521FFF7F3FD0122A1
:100978005B4800230821FFF7EDFD5A4B03A81978BF
:10098800FFF764FF002301220A21FFF7E3FD01239B
:1009980055481A460D21FFF7DDFDCAF80060534897
:1009A800036841F28732F31A93426CD9504A0660C1
:1009B80011781470009A02EBCB0AA1429AF90B2025
:1009C80034BF631A0B1B002ADBB22CDD9AF808002F
:1009D800A0422DD99AF80900A8425BD200231A46F2
:1009E80019464448FFF7B6FD00231A46DAF8040012
:1009F8000521FFF7AFFD0023194601223E48FFF706
:100A0800A9FD03A89AF80910FFF720FF0023012287
:100A18000821FFF79FFD012338481A460B21FFF7ED
:100A280099FD022014E016D09AF80800A042D1D30C
:100A380098F800303A680133DBB2042B88F80030AC
:100A480003D802EBC3035A689AB9FFF737FF0120AE
:100A580005B0BDE8F08F9AF809300BB1AB42E7D981
:100A68009AF80830A34210D91E4B18780A3040B2C1
:100A780007E093F90A30C9F800607F2B14BF3220D1
:100A88006420FFF7D3FE0020E2E7FCD2154B18786C
:100A98000A38ECE7A1420AD2002A01DA0020F0E77E
:100AA8009AF90A108B42DFDB9342ECDDEEE7002A6D
:100AB80001DD6420E5E79AF90A1049428B42E5DB3B
:100AC80052429342DFDDCFE7E8020020E002002037
:100AD800D8020020E402002001460008124600085F
:100AE80015460008D402002018460008DC02002041
:100AF800D50200201A4600082046000829460008AA
:100B080010B54FF0FF310A4800F050FE084800F0D9
:100B1800BFFE084A002332F82340844202EB8301D7
:100B280001D9887810BD0133FF2BF4D11846F9E7B5
:100B380064040020665200080248CD230221038085
:100B480000F0C8B9EC02002010B5164C2378012B30
:100B580026D1154B15481B8842F2FA7293429EBF64
:100B680005330A22B3FBF2F3114A88BF40F2FF3380
:100B780011789A0242EA01721A430E4B1B889B01B4
:100B880003F47F5343F4905343F0020342F080721E
:100B980006210380C0F8022000F09CF9022323708C
:100BA80010BD00BFFA020020F4020020EC02002071
:100BB800F2020020F80200200388254AF0B413F45A
:100BC800E04FC3F381151580C3F3023603F01F020B
:100BD80012D1012A39D0062A02D11E4A03211170E6
:100BE80003F4606343EA85131B4843F00103F0BC38
:100BF8000221038000F06EB9012AF1D1174A178843
:100C0800174AB2F800C00238002450F8041F8A0FAF
:100C180004F1010415D1C1F3892202EB820202EB2F
:100C28008202520092B2BA420BD1C1F3090101EB20
:100C38008101BCEB410F04D80A4A01211470054A0E
:100C4800CDE7E4B2A642E0D1CAE7F0BC704700BFE6
:100C5800F8020020FA020020EC020020F602002030
:100C6800F4020020F2020020044B054A1880054BCC
:100C780005481980054900F013B800BFF6020020A6
:100C8800410B0008F4020020C10B0008510B0008BA
:100C9800024B1878C31E584258417047FA02002088
:100CA800384B30B51860384B384D1960384B1A60DE
:100CB800384B9A6D42F080529A659A6D89B002F06D
:100CC80080520192019A9A6C42F480529A649B6C09
:100CD80003F480530093009B0FCD02AC0FC495E83A
:100CE80003002D4D84E8030002A9284603F03DF9CE
:100CF800102402A92846029403F037F9224600215D
:100D0800264C02A803F05EFB02A803F0F3F902A93F
:100D1800204603F0C7F92368214A6FF31C5343F4B4
:100D280080132360936843F480439360236943F4FA
:100D380080432361236943F400432361236843F01C
:100D480000432360E36843F40073E360E36823F43B
:100D5800C073E360E36843F44063E360E36823F04F
:100D68001003E360E36843F02003E3600D4B93F85E
:100D7800372302F0F00283F83F234FF000425A6015
:100D880009B030BD0403002000030020A845000876
:100D9800FC020020001002400004004800A00040AF
:100DA8000070004000E100E0424B10B55C69E105CD
:100DB80006D5414A186B41491378C854013313705A
:100DC800E20708D53E4A3F4913780968C85C3949A3
:100DD80001334862137014F4404F3DD0354B9A6983
:100DE80042F480429A619A6942F400429A615A69CF
:100DF80012F4403F5AD15A6912F4402F2CD00221E4
:100E08001A6922F480421A611A6922F480421A612E
:100E1800DA68013918BF012122F0400242EA811242
:100E2800DA601A6942F480521A611A6942F48072CF
:100E38001A611A6942F004021A611A6942F0020240
:100E48001A611A6942F008021A611A6942F001022D
:100E58001A611D4B1B689847E3040DD5154A936921
:100E6800A00443F48053936103D4184B13481B68C0
:100E78009847114B00221A70210741BF0D4A936908
:100E880043F008039361A20741BF0A4A936943F0FC
:100E98000203936163070BD5064A936943F0040381
:100EA80093610B4BBDE810401B6818470121A7E769
:100EB80010BD00BF00A00040100300201103002057
:100EC800080300200C030020FC020020040300207B
:100ED80000030020064B1860064B00221A70064BD0
:100EE800064ADA611962DA6842F00402DA60704789
:100EF8000C0300200803002000A0004018E30800AD
:100F080010B594B03822002106A803F05BFA142229
:100F1800002101A803F056FA002001F02DFC402220
:100F28004FF480710120CDE9091215220223CDE981
:100F38000F02042406A8CDE90D33CDE91243069328
:100F4800119301F071FC08B172B6FEE7CDE9030018
:100F58000F2203230590214601A8CDE9012301F0C2
:100F68009BFE08B172B6FEE714B010BD80B592B012
:100F780000F0DEFAFFF7C4FF142200210AA803F0EC
:100F880021FA964B964CDA6C42F02002DA64DA6C5D
:100F980002F020020092009ADA6C42F00102DA6450
:100FA800DA6C02F001020192019ADA6C42F0020254
:100FB800DA64DB6C03F002030293002280214FF015
:100FC8009040029B01F01CF900228648012100256F
:100FD80001F016F97023CDE90A350AA902234FF06A
:100FE800904001260C9301F03BF880230AA94FF0AA
:100FF8009040CDE90A36CDE90C5501F031F8794831
:101008000AA9CDE90A66CDE90C5501F029F8202294
:1010180029460AA84FF0A047CDE90655089503F0E0
:10102800D1F94FF44033C4E900734FF480730427B7
:10103800A38320464FF48053C4E90255C4E90455FC
:10104800C4E90B55A761266284F8245084F8385007
:10105800E36384F8405000F0B9FA08B172B6FEE7CD
:10106800069006A9204600F03BFF08B172B6FEE7DD
:101078005D4D0F9006234FF07F080AA92046CDE961
:101088000A53CDE90D870C9700F006FC054608B118
:1010980072B6FEE74146204600F0D6FE204600F034
:1010A80029FE524C524B236003F1015303F57E2372
:1010B80003F28C732046C4E90135C4E90365C4E929
:1010C8000555C4E9075501F0DCF9014608B172B6C7
:1010D800FEE7204601F004FB014608B172B6FEE7C0
:1010E800204601F023FB08B172B6FEE7414C4249A5
:1010F80020614FF4E133C4E900130C23C4E9020072
:10110800C4E90530C4E90700C4E90900204602F033
:101118007EFE014608B172B6FEE7204602F0E5FE03
:10112800014608B172B6FEE7204602F0FEFE08B19D
:1011380072B6FEE7204602F0BDFE08B172B6FEE7C1
:1011480000251022002106A803F03CF91C2229469C
:101158000AA82A4C0595CDE9035503F033F9284A26
:10116800A560A723C4E900236323C4E90335204607
:101178008023A36102F054F908B172B6FEE74FF478
:10118800805306A92046069302F070FA08B172B699
:10119800FEE7204602F074F908B172B6FEE7039044
:1011A800059003A9204602F0B3FB08B172B6FEE72A
:1011B8006023CDE90A300C900E900C220AA9204633
:1011C80002F0CEF908B172B6FEE7204600F0E2F868
:1011D800FFF752F9FFF70EF9FCE700BF00100240D5
:1011E80064040020000400480200300410040020B9
:1011F800007800403003002000480040C40300206D
:101208000008004072B6FEE70A4B1A6E42F001026F
:101218001A661A6E82B002F001020092009A9A6D64
:1012280042F080529A659B6D03F080530193019BB5
:1012380002B070470010024010B598B0044614225E
:10124800002102A803F0BEF84422002107A803F0F9
:10125800B9F82368B3F1A04F29D14FF4004307939D
:1012680007A84FF00053169301F026FE08B1FFF7C8
:10127800C9FF104BDA6C42F40052DA64DA6C02F4FB
:1012880000520092009ADA6C42F00102DA64DB6CD8
:1012980003F001030193019B01220323CDE90223FB
:1012A80002A900234FF09040049300F0D9FE18B033
:1012B80010BD00BF00100240F0B59BB004461422D8
:1012C800002104A803F07EF84422002109A803F0B5
:1012D80079F82268224B9A423FD14FF4807309A8CB
:1012E800099301F0E9FD08B1FFF78CFF1D4CE36C91
:1012F80043F00103E364E36C03F001030193019BF2
:10130800E36C43F00203E364E36C03F0020302932B
:10131800029B12274FF48073CDE90437012602237C
:10132800032504A94FF090400893CDE9066500F025
:1013380097FE2023CDE904370B48082304A9089316
:10134800CDE9066500F08CFEA36D43F08043A365EC
:10135800A36D03F080430393039B1BB0F0BD00BF54
:101368000078004000100240000400480268084B62
:101378009A4282B00AD103F502339A6D42F0040210
:101388009A659B6D03F004030193019B02B07047BB
:101398000008004010B5044686B01422002101A8B8
:1013A80003F010F82268104B9A421BD103F5023360
:1013B8000E48DA6C42F00202DA64DB6C03F00203D6
:1013C8000093009B4FF400720223CDE9012301A989
:1013D8000322CDE9042300F043FE054A536843F491
:1013E8000023536006B010BD000800400004004808
:1013F8000000014010B598B004461422002102A84C
:1014080002F0E0FF4422002107A802F0DBFF226877
:10141800164B9A4228D1042307A8079301F04CFDE4
:1014280008B1FFF7EFFE124B12489A6D42F4802282
:101438009A659A6D02F480220092009ADA6C42F062
:101448000202DA64DB6C03F002030193019B4FF4A0
:1014580040620223CDE902230023CDE9043302A927
:101468000723069300F0FCFD18B010BD00480040AB
:101478000010024000040048FEE7FEE7FEE7FEE732
:10148800FEE770477047704700F062B87047000089
:101498000D488546FFF7FAFF0C480D490D4A002311
:1014A80002E0D458C4500433C4188C42F9D30A4A11
:1014B8000A4C002301E013600432A242FBD302F07D
:1014C800D3FFFFF753FDFEE7008000200000002057
:1014D80094000020B8560008940000206C060020F4
:1014E800FEE7000038B50F4B1A6805460AB9012017
:1014F80038BD4FF47A73B3FBF2F30B4A1068B0FBB4
:10150800F3F000F099FD04460028F0D10F2DEED835
:10151800024629464FF0FF3000F05CFD034B2046A1
:101528001D60E5E788000020840000208C00002072
:1015380010B5032000F03CFD0F20FFF7D3FF044651
:1015480018B9FFF761FE204610BD0124FBE7000033
:10155800034A0449136809680B441360704700BFC5
:10156800D004002088000020014B1868704700BF95
:10157800D004002038B50446FFF7F6FF631C1CBFF3
:10158800054B1B68054618BFE418FFF7EDFF431B22
:10159800A342FAD338BD00BF8800002030B5CC0D77
:1015A80004F004041430C1F30451035907258D4095
:1015B80023EA05038A401343035130BD806800F0D5
:1015C800010070478068C0F38000704737B500237A
:1015D80001930446002800F0DB80C56D25B9FFF7AC
:1015E8002BFE256684F8585023689A68950041BFF9
:1015F8009A6822F0204222F03F029A609A68D0004E
:1016080040F19E809A68D10000F1B180E26D42F00D
:101618001002E265226E42F001022266012118469C
:10162800FFF7D0FFE26D02F01002024340F0AC80F9
:10163800E26D22F4817242F00202E2651846FFF779
:10164800BDFF80B94FF0A040FFF7B8FF02465148F0
:10165800FFF7B4FF024306D14F486568826822F459
:101668007C122A438260E568E26B94F824002A43DE
:10167800A5682A43657F012842EA453242EA0042CA
:1016880002BFA06A00F1FF3042EA4042E06A20B19E
:10169800256B00F4787028430243DD683F482840F2
:1016A8001043D8601A69606B22F0406202431A61E5
:1016B8009A6812072CD4D86894F83820257F5200ED
:1016C80020F4804042EA853220F002000243256976
:1016D800DA6033481A69002D4BD042F480321A611F
:1016E800D3F8C02002402A43C3F8C02094F8402011
:1016F800012A45D1D4E9112518692A436FF38A00D4
:101708000243E06C0243206D024342F001021A6179
:101718006269012A05BF186B226A1A6B02F1FF324F
:1017280006BF20F00F00024322F00F021A63E36D98
:1017380023F0030343F00103E365084603B030BD1B
:101748009A68184922F0104222F03F0242F0805273
:101758009A60154A1268B2FBF1F201325200019206
:10176800019A002A3FF44EAF019A013AF7E70021A7
:1017780055E722F480321A61D3F8C0200240B3E75B
:101788001A6922F00102C2E7E36D43F01003E36532
:101798000121D2E700010050000300500740F0FF8C
:1017A80000C0FFFF400D030084000020364A2DE9E9
:1017B800F04185699768082D04460E4607F01F0713
:1017C80015D040F22123FB40D9070BD50368DB680D
:1017D80013F0010F0AD0E36D43F02003E365012005
:1017E800BDE8F081936813F4604FF3E70425FFF731
:1017F800BBFE804623681A682A4225D0E26D42F46F
:101808000072E265DA6812F4406F0FD1627F6AB93C
:101818001A6816070AD5E26D22F48072E265E26D55
:10182800D0045EBFE26D42F00102E265174A9342BE
:1018380004D140F22122FA40D1071BD5DA68082DDD
:101848001CD11D600020CBE7721CD4D0FFF78CFEA2
:10185800A0EB0800B04201D8002ECBD123681B684A
:101868002B40C7D1E26D84F8583042F00402E2659B
:101878000320B5E74FF0A042D268E0E75204E1D474
:101888000C221A60DEE700BF000300500001005080
:101898000368186C70470000F7B50023019390F8AF
:1018A8005830012B05460E4600F0AF81046801232D
:1018B80080F858302046FFF785FE002840F09F81C9
:1018C8004A683368910901F00C0104F1300702F00D
:1018D8001F0278584FF01F0CC3F3846393400CFA2F
:1018E80002F220EA020213437B502046FFF76AFE09
:1018F800A26802F0080202433BD1B3683168B3F131
:10190800004F7AD12046FFF749FE636943F0004350
:10191800636137697169E0683268042F04F1600314
:1019280073D0C0F3C100400053F827C08140B848C5
:1019380002F0F8420CEA0000104341EA000242F0CB
:10194800004243F827203169B06953F8212022F07A
:101958008072024343F82120317F30694F1E53F8CB
:1019680020207942794122F0007242EA416243F82C
:1019780020202046FFF722FEA0BBF7683368A54A5F
:10198800D4F8B01007F0180CC3F3120022FA0CF2C6
:101998001A4021EA00010A43C4F8B0209E4A97423F
:1019A80020D1002840F090809A0E013202F01F07E3
:1019B800092F4FF001014FEA826200F2A58002F080
:1019C800F842B9401143002840F099809B0E01333A
:1019D80003F01F0303EB43031B05B26819432046BA
:1019E800FFF7DCFD33688D4A134240F0BB800020CE
:1019F800002385F8583003B0F0BD1A462046FFF79B
:101A0800CDFD636923F0004382E7216E216EC2F3A6
:101A18001200C1F38461002839D1C2F38462914273
:101A280002BF226E22F000422266626E3268616E48
:101A3800C2F31200C1F3846100282FD1C2F384627B
:101A4800914202BF626E22F0004262669A68326872
:101A58009968C2F31200C1F3846130BBC2F3846297
:101A6800914202BF9A6822F000429A60DA683268AE
:101A7800D968C2F31200C1F38461E8B9C2F3846281
:101A8800914202BFDA6822F00042DA6071E792FA06
:101A9800A2F2002AC9D0B2FA82F2C0E792FAA2F200
:101AA800002AD3D0B2FA82F2CAE792FAA2F2002A46
:101AB800DCD0B2FA82F2D3E792FAA2F2002A3FF41B
:101AC80058AFB2FA82F2DBE793FAA3F232B1B2FA74
:101AD80082F2013202F01F02092A25D893FAA3F2F2
:101AE800B2FA82F20132920602F0F84293FAA3F7B0
:101AF800B7FA87F7013707F01F07012161E793FA63
:101B0800A3F3B3FA83F362E702F0F842B940114352
:101B1800D8B99B0E013303F01F0303EB43031E3BAD
:101B28001B0543F0007358E793FAA3F2B2FA82F266
:101B38000132920602F0F84293FAA3F7B7FA87F750
:101B4800013707F01F070121E0E793FAA3F2B2FA81
:101B580082F2013202F01F0203236FF01D0013FB13
:101B68000203DDE72E4A2F4E9168B34201F0E07080
:101B780002D02D4EB3421ED10E023FF538AFB4F15C
:101B8800A04F7FF434AF264A936823F0E0730343F1
:101B980043F400039360254B1A68254BB2FBF3F21C
:101BA8000C2302FB03330193019B002B3FF41FAF6F
:101BB800019B013BF7E71F4EB3420ED1C9013FF528
:101BC80016AF1D4B9C423FF412AF936823F0E073AD
:101BD800034343F08073936009E7184EB3427FF4E0
:101BE80006AF4B023FF503AF134B9C423FF4FFAEE9
:101BF800936823F0E073034343F48003EBE7EA6D53
:101C080042F02002EA651846F2E60220F3E600BF39
:101C180000F0FF03FFFF070000007F40000008807E
:101C280000030050000021C31000C0908400002071
:101C3800400D0300000052C700010050000084CB93
:101C480073B502680446002310460193FFF7B6FCFB
:101C580010B1002002B070BD9168214B194209D023
:101C6800E36D43F01003E365236E43F0010323663D
:101C78000120EFE7936823F0004323F03F0343F08C
:101C880001039360174B9B6819021AD4FFF76CFC89
:101C9800154E054622681368DB07DAD41046FFF7AD
:101CA8008DFC20B99368334043F001039360FFF73C
:101CB8005BFC401B0228EDD923681B68DA07E9D4CE
:101CC800CEE70A4B1A680A4BB2FBF3F20C2302FB6D
:101CD80003330193019B002BD8D0019B013BF8E70C
:101CE8003F00008000030050C0FFFF7F84000020F9
:101CF800400D0300334B70B5044600689E68FFF73B
:101D080061FC054600285BD194F85830012B57D068
:101D1800012384F858302046FFF792FF00284CD161
:101D2800E36D294A23F4706323F0010343F48073BD
:101D3800E3652368934206F01F012ED14FF0A042BD
:101D480019B9E56D25F48015E565E56D15F480553F
:101D58001CBF256E25F0060525661C251D609342CF
:101D68004FF0000584F8585005D040F2212525FA97
:101D780001F1C90713D5DA68920141BFE26D22F477
:101D8800405242F48052E2659A6822F0004222F002
:101D98003F0242F004029A6070BD1A46D1E7E36D33
:101DA80043F48013E365D3689B01F5D5E36D23F411
:101DB800405343F48053E365EEE784F85850EBE76B
:101DC8000220E9E70003005000010050026838B51E
:101DD800044610469368FFF7F1FB08B9002038BDA8
:101DE8009907FBD4936803F00D03012B19D193686D
:101DF80023F0004323F03F0343F0020393600323DF
:101E08001360FFF7B1FB054623689B68DB07E5D540
:101E1800FFF7AAFB401B0228F6D923689B68DA075C
:101E2800F2D5E36D43F01003E365236E43F001033D
:101E380023660120D3E7806800F0010070478068BE
:101E4800C0F380007047000037B50023019390F875
:101E58005830012B04460D463DD0012380F85830F8
:101E6800FFF7B4FFE36D002832D123F4885323F041
:101E78000203226843F00203E365936823F04043BA
:101E880023F03F0305F080452B4343F00043936064
:101E98009368002B12DA019B0133019301990F4BD0
:101EA8009942F5D9E36D23F0120343F01003E3657B
:101EB800002384F85830012003B030BDE36D23F0CF
:101EC800030343F00103E365002384F85830F3E784
:101ED80043F01003F7E70220EEE700BF01DE04003D
:101EE80070B590F85820012A9CB0034659D00122B9
:101EF80080F858201D680020B5F1A04F189019905F
:101F08000ED12948FFF79BFF04462846FFF797FFA5
:101F180020430ED0D96D41F02001D965104628E044
:101F2800D96D83F8580041F02001D96510461CB0DE
:101F380070BD0C681D4A04B390684E6820F4604078
:101F4800304393F8386040EA463090602846FFF7FF
:101F580072FF05461448FFF76EFF054308D18968EC
:101F680090680C4320F4716121F00F010C439460D8
:101F78000020002283F85820D9E7916821F46041B5
:101F880091602846FFF757FF01460748FFF753FFC0
:101F98000143EDD1916821F4716121F00F01916045
:101FA800E6E70220C3E700BF00010050000300502D
:101FB8000749CA6822F4E0620302120403F4E063EA
:101FC800120C134343F0BF6343F40033CB607047F4
:101FD80000ED00E0164B30B5DC68C4F30224C4F110
:101FE8000703251D042B28BF0423062D4FF0FF35BA
:101FF8008CBF033C002405FA03F321EA0303A54040
:1020080022EA0502A340002843EA0203ACBF00F11C
:102018006040084A4FEA0313B8BF00F00F00DBB274
:10202800AABF00F56140135480F8003330BD00BFEB
:1020380000ED00E014ED00E00138B0F1807F0BD234
:102048004FF0E023054A5861F02182F82310002060
:10205800072298611A6170470120704700ED00E07F
:102068002DE9F74FDFF88091604C00230A6832FAB7
:1020780003F502D103B0BDE8F08F012505FA03F896
:1020880018EA020200F0A4804E68032706F0030550
:102098004FEA430E07FA0EFC6F1E012F6FEA0C0C75
:1020A80034D8876807EA0C0ACF6807FA0EF747EAB8
:1020B8000A078760476827EA0808C6F300179F40A1
:1020C80047EA08074760C76807EA0C088F6807FAF5
:1020D8000EF747EA0807022DC76019D14FEAD3085F
:1020E80000EB880803F0070AD8F820704FEA8A0A3C
:1020F8004FF00F0B0BFA0AFB27EA0B0B0F6907FAD5
:102108000AF747EA0B07C8F8207001E0032DDAD177
:10211800076805FA0EF507EA0C073D4316F4403F39
:10212800056055D0D9F8605045F00105C9F86050F0
:10213800D9F8605023F0030707F1804705F001053F
:1021480007F58037019503F0030C019DBD684FEA40
:102158008C0C4FF00F0E0EFA0CFEB0F1904F25EAE2
:102168000E0E37D0224DA84236D005F58065A8421C
:1021780034D005F58065A84232D005F58065A842BF
:1021880030D005F58065A84214BF0625052505FA57
:102198000CF545EA0E05BD60A568D74316F4801F07
:1021A8000CBF3D401543A560E56816F4001F0CBF41
:1021B8003D401543E560656816F4003F0CBF3D409F
:1021C800154365602568F60354BF3D4015432560F7
:1021D80001334BE70025DAE70125D8E70225D6E7E2
:1021E8000325D4E70425D2E700100240000401408B
:1021F800000400480369194214BF012000207047F9
:102208000AB18161704781627047436901EA03023C
:1022180021EA030141EA02418161704703689A6932
:10222800910744BF00229A629A69D2075EBF9A69F1
:1022380042F001029A61704730B5039D04682B4350
:1022480043EA0243064A6068C1F309010B4342EAC4
:10225800555223F0004320EA02000343636030BD77
:10226800FF63FF0303682DE9F0419C6914F0100433
:1022780005460F4616466FD010220024DA61A046A4
:102288002B689A69900661D4B8F1000F35D044F0F4
:10229800040401202E68B369D90541BF4FF4807248
:1022A800F26144F0010401205A0541BF4FF48062F5
:1022B80044F00804F26101209B054FD54FF40073E8
:1022C80044F00204F3612846FFF7A8FF736823F07F
:1022D800FF7323F48B3323F4FF7323F0010373603C
:1022E8006B6C23436B64202385F84130002385F809
:1022F800423085F84030012032E07A1CC1D0FFF727
:1023080033F9801BB84201D8002FB9D12B6859681E
:1023180095F8422098690004D2B20AD5490408D435
:10232800202A06D05A6842F480425A60FFF71CF906
:1023380006462B689B699B06A2D4FFF715F9801BFC
:102348001928F6D920244FF0010899E7B8F1000FB1
:102358009DD12022DA619AE720469BE70028B2D176
:10236800BDE8F08170B504460D46164623689B69A2
:102378009B0701D500201FE0324629462046FFF77B
:1023880071FFC0B96A1CF1D0FFF7EEF8801BA842B4
:1023980001D8002DEAD123689B6913F00203E5D127
:1023A800626C84F8403042F020026264202284F893
:1023B800412084F84230012070BD2DE9F041DDF85C
:1023C800188004460F4616461D4623689B6937EA5F
:1023D80003030CBF01230023B34201D0002025E0F2
:1023E800424629462046FFF73DFFF0B96B1CECD06A
:1023F800FFF7BAF8A0EB0800A84201D8002DE4D1F5
:1024080023689B6937EA03030CBF01230023B34207
:10241800DBD1636C43F020036364202384F84130EC
:10242800002384F8423084F840300120BDE8F08170
:1024380070B504460D46164623689B699B0601D570
:1024480000201DE0324629462046FFF70BFFB0B9B1
:10245800FFF78AF8801BA84201D8002DECD1236829
:102468009B6913F02003E7D1626C84F8403042F096
:1024780020026264202284F8412084F8423001203E
:1024880070BD10B5044600284ED090F8413003F0D6
:10249800FF021BB980F84020FEF70EFF242384F8C2
:1024A800413023681A6822F001021A60626822F03B
:1024B80070621A619A6822F400429A60D4E9022193
:1024C800012906D142F400429A605A6822F4006257
:1024D80007E042F4044202299A60F6D15A6842F4AD
:1024E80000625A605A6842F0007242F400425A6030
:1024F800DA6822F40042DA60D4E904210A43A169C7
:1025080042EA0122DA60D4E907210A431A601A680C
:1025180042F001021A6000202023606484F84130F0
:10252800206384F8420010BD0120FCE72DE9F74F35
:10253800994690F84130BDF834A0DDF83880202B5A
:1025480004460F46164640F0C6800C9B13B1BAF1FC
:10255800000F06D14FF400736364012003B0BDE897
:10256800F08F90F84030012B00F0B5804FF0010B50
:1025780080F840B0FEF7F8FF1923054600905A4648
:102588004FF400412046FFF718FF0028E5D121232A
:1025980084F84130402384F842300C9B63624F4BEF
:1025A80060646063A4F82AA05FFA89F20093394650
:1025B80020464FF08073FFF73FFE2A4641462046EB
:1025C800FFF7D0FE18BBB9F1010F236815D1F6B299
:1025D8009E6200220095434680212046FFF7EDFECB
:1025E800A8B9638D9BB2FF2B15D8628D92B2228554
:1025F8004FF000730090D2B212E0320A9A6241465C
:102608002A462046FFF7AEFE08B92368DFE7002315
:1026180084F84030A1E7FF2222854FF080730090B4
:1026280039462046FFF708FE2A4641462046FFF76E
:1026380099FE002891D1636A226813F8011B916200
:102648006362638D228D013B9BB26385638D013A82
:1026580092B29BB22285B3B1AAB9009543468021B4
:102668002046FFF7AAFE00287FF477AF638D9BB260
:10267800FF2B28D9FF2222854FF08073009039461E
:102688002046FFF7D9FD638D9BB2002BCCD12A469B
:1026980041462046FFF7CCFE00287FF45EAF236852
:1026A8002021D9615A6822F0FF7222F48B3222F479
:1026B800FF7222F001025A6084F8411084F8400049
:1026C80084F842004AE7628D92B222854FF0007387
:1026D8000090D2B2D3E7022040E700BF002000807C
:1026E80010B590F84120202A0346D4B21CD190F8A6
:1026F8004020012A18D0242280F84120026810685E
:1027080020F001001060106820F4805010601068FC
:10271800014311601168002041F00101116083F844
:10272800414083F8400010BD0220FCE710B590F846
:102738004120202A0346D4B21BD190F84020012A18
:1027480017D0242280F841200268106820F0010088
:102758001060106820F4706040EA0121116011686F
:10276800002041F00101116083F8414083F84000E6
:1027780010BD0220FCE70000284B1A6818BB02F4C1
:10278800C062B2F5806FD3F8802022F48072C3F85B
:10279800802040D11A6822F4C06242F400721A60A4
:1027A8001F4A126832214A431E49B2FBF1F2013234
:1027B8005969490500D522B95B6958052BD503200D
:1027C8007047013AF4E7B0F5007F1FD102F4C06208
:1027D800B2F5806FD3F8802042F48072C3F880206D
:1027E80019D11A6822F4C06242F400721A600C4AC5
:1027F800126832214A430B49B2FBF1F2013259699E
:102808004905D9D5002AD7D0013AF8E722F4C062A1
:1028180042F480621A600020704700BF00700040D8
:102828008400002040420F002DE9F341044618B906
:10283800012002B0BDE8F0810368D90714D42368E9
:102848009A0758D42368190700F1A18023685A070A
:1028580000F1C88023689A0600F12F81E369002BF4
:1028680040F05C810020E4E79F4DAB68EA6803F024
:102878000C030C2B0AD102F00303032B08D12B689D
:102888009B03DCD56368002BD9D1D1E7082BF5E78A
:102898006368B3F5803F10D12B6843F480332B6015
:1028A800FEF762FE06462B689F03C8D4FEF75CFE5F
:1028B800801B6428F7D90320BBE7B3F5A02F04D108
:1028C8002B6843F480232B60E6E72A6822F48032E1
:1028D8002A602A6822F480222A60002BE0D1FEF7C1
:1028E80043FE06462B689903A9D5FEF73DFE801BDB
:1028F8006428F7D9DFE77C4DAB68EA6803F00C037E
:102908000C2B17D102F00303022B15D12B685A05A3
:1029180002D5E368002B8BD06B68226923F0FE4355
:1029280043EA02636B60714B1868FEF7DBFD002811
:1029380088D07DE7042BE8E7E368BBB12B6843F454
:1029480080732B60FEF710FE06462B685B0507D5E3
:102958006B68226923F0FE4343EA02636B6071E708
:10296800FEF702FE801B0228EFD9A4E72B6823F4A8
:1029780080732B60FEF7F8FD06462B685F057FF530
:1029880061AFFEF7F1FD801B0228F6D993E7636972
:10299800554D9BB1D5F8943043F00103C5F89430F8
:1029A800FEF7E2FD0646D5F894309B073FF54EAF9B
:1029B800FEF7DAFD801B0228F5D97CE7D5F89430BC
:1029C80023F00103C5F89430FEF7CEFD0646D5F88E
:1029D80094309F077FF53AAFFEF7C6FD801B0228AB
:1029E800F5D968E7404DAB6DD80027D4AB6D43F0FF
:1029F8008053AB65AB6D03F080530193019B0127B6
:102A08003B4E3368D9051BD5A368012B29D1D5F8CE
:102A1800903043F00103C5F89030FEF7A5FD41F270
:102A280088380646D5F890309B0740D5002F3FF4EC
:102A380011AFAB6D23F08053AB650BE70027DFE7E1
:102A4800336843F480733360FEF78EFD8046336845
:102A5800DA05D9D4FEF788FDA0EB08000228F6D9DC
:102A680029E7052B06D1D5F8903043F00403C5F8C3
:102A78009030CCE7D5F8902022F00102C5F89020DC
:102A8800D5F8902022F00402C5F89020002BC4D17C
:102A9800FEF76AFD41F288380646D5F89030990766
:102AA800C4D5FEF761FD801B4045F6D903E7FEF764
:102AB8005BFD801B4045B5D9FDE6A3690A4DCBB146
:102AC800D5F8983043F00103C5F89830FEF74CFD6F
:102AD8000646D5F898309B073FF5C0AEFEF744FD93
:102AE800801B0228F5D9E6E6001002408C00002081
:102AF80000700040D5F8983023F00103C5F89830ED
:102B0800FEF732FD0646D5F898309F077FF5A6AE4A
:102B1800FEF72AFD801B0228F5D9CCE6454DAA68A8
:102B280002F00C020C2A51D0022B2B6823F0807380
:102B38002B603AD1FEF718FD06462B6899012ED472
:102B4800EA683D4B1340226A1343A26A43EA022310
:102B5800E26A43EAC263626A013A43EA0213226BF9
:102B68005208013A43EA4253626B5208013A43EA77
:102B78004263EB602B6843F080732B60EB6843F093
:102B88008073EB60FEF7F0FC04462B689A013FF572
:102B980069AEFEF7E9FC001B0228F6D98BE6FEF7C2
:102BA800E3FC801B0228C8D985E6FEF7DDFC044655
:102BB8002B689B0104D4EA68204B1340EB6051E674
:102BC800FEF7D2FC001B0228F2D974E6012B3FF471
:102BD8002FAEEB68226A03F0030191427FF428AE1E
:102BE800616A03F0F0020139B2EB011F7FF420AEF5
:102BF800A16A03F4FE42B2EB012F7FF419AEE16A39
:102C080003F07842B2EBC16F7FF412AE226B520828
:102C180003F4C001013AB1EB425F7FF409AE626B85
:102C28005208013A03F0C063B3EB426F14BF0120AE
:102C38000020FEE5001002400C809F01FCFFEEFE24
:102C4800134B9A6802F00C02042A1DD09A6802F00D
:102C58000C02082A18D09A6802F00C020C2A15D126
:102C6800DA68D968D868DB680A4AC3F34163C1F3F4
:102C78000311C0F30620013301315B00B2FBF1F20E
:102C88005043B0FBF3F0704702487047002070478C
:102C9800001002400024F4002DE9F8430E460546D2
:102CA80010B90120BDE8F8836A4A136803F00F03DE
:102CB8008B4245D3296811F001084CD12A68910745
:102CC80040F1A180644B12F0040F1EBF996841F4D3
:102CD800E0619960120741BF9A6822F47C5242F47D
:102CE800E0629A609A68A96822F0F0020A439A6042
:102CF800584C236803F00F03B34200F28D802A6812
:102D0800554C12F0040F40F09D80130706D5A368B8
:102D18002A6923F4605343EAC203A360FFF790FFD4
:102D2800A3684E4AC3F30313D35C03F01F03D840D0
:102D38004B4B18604B4B1868BDE8F843FEF7D2BB05
:102D4800136823F00F030B431360136803F00F039A
:102D58008B42A6D1AEE76F683F4C032F236843D15F
:102D68009B019ED5E368E068E3683F4AC0F303101F
:102D7800C3F306230130B2FBF0F25343E268C2F317
:102D8800416201325200B3FBF2F3384A934219D838
:102D98004FF00008A36823F003033B43A360FEF74A
:102DA800E3FB41F288390746A3686A6803F00C031D
:102DB800B3EB820F82D0FEF7D7FBC01B4845F3D98F
:102DC80003206FE7A36813F0F00F04D08807DFD55E
:102DD800AB68002BDCD1A36823F0F00343F0800339
:102DE800A3604FF08008D5E7022F09D113F4003F04
:102DF8003FF457AFFFF724FF1C4B9842C8D9EAE7C6
:102E080013F4806FF4E7B8F1800F01BF124A93689A
:102E180023F0F00393606BE7236823F00F03334339
:102E28002360FEF7A1FB41F288380746236803F0C8
:102E38000F03B3423FF463AFFEF796FBC01B404558
:102E4800F4D9BDE7A368E96823F4E0630B43A36002
:102E58005BE700BF00200240001002406A560008ED
:102E6800840000208C0000200024F40000B4C40476
:102E7800054B064A9B68C3F30223D35C044A1068D7
:102E880003F01F03D8407047001002406256000844
:102E980084000020054B064A9B68C3F3C223D35C19
:102EA800044A106803F01F03D8407047001002401E
:102EB80062560008840000202DE9F34104460068AA
:102EC80010F4002056D0984DAB6DD80044D4AB6DAB
:102ED80043F08053AB65AB6D03F080530193019BC6
:102EE8000126924F3B6843F480733B60FEF73CFB3E
:102EF80080463B68D90531D5D5F89030226C13F45B
:102F080040731FD093421DD0D5F89020D5F890304B
:102F180043F48033C5F89030D5F8903022F44071EE
:102F280023F48033D207C5F89030C5F8901009D53E
:102F3800FEF71AFB41F288380746D5F890309B0710
:102F480040F1EB80D5F89030226C23F440731343A2
:102F5800C5F89030002008E00026C2E7FEF704FB21
:102F6800A0EB08000228C4D903201EB1AB6D23F0E2
:102F78008053AB652368DE0708D56B496568D1F8CF
:102F8800882022F003022A43C1F888209D0708D52B
:102F98006549A568D1F8882022F00C022A43C1F8B7
:102FA8008820590708D56049E568D1F8882022F0BB
:102FB80030022A43C1F888201A0708D55A492569DA
:102FC800D1F8882022F0C0022A43C1F888209F0641
:102FD80008D555496569D1F8882022F440622A430A
:102FE800C1F888205E0608D54F49A569D1F8882020
:102FF80022F440522A43C1F888201D0608D54A49C0
:10300800E569D1F8882022F440422A43C1F8882093
:10301800D90508D54449256AD1F8882022F44032D8
:103028002A43C1F888209A0508D53F49656AD1F82E
:10303800882022F440222A43C1F888205F050FD552
:103048003949A56AD1F8882022F440122A43C1F8E8
:103058008820B5F5801F02BFCA6842F48012CA6092
:103068001E050FD53049E56AD1F8882022F44002C0
:103078002A43C1F88820B5F5800F02BFCA6842F418
:103088008012CA60DD040FD52749256BD1F8882046
:1030980022F040722A43C1F88820B5F1807F02BF30
:1030A800CA6842F48012CA6099040FD51E49656B3C
:1030B800D1F8882022F040622A43C1F88820B5F16F
:1030C800006F02BFCA6842F48012CA605A040FD562
:1030D8001549A56BD1F8882022F040622A43C1F82F
:1030E8008820B5F1006F02BFCA6842F48012CA6036
:1030F8001B040FD50C4AE16BD2F8883023F04053FB
:103108000B43B1F1805FC2F8883003D1D36843F430
:103118008033D36002B0BDE8F081FEF725FAC01B0A
:1031280040457FF60AAF1FE70010024000700040DC
:10313800036A026A22F00102026270B54468826979
:103148000D6822F4803222F073022A438D6823F03E
:1031580002032B43124DA8420FD005F50065A84283
:103168000BD005F54065A84207D005F58065A84253
:1031780003D005F58065A8420BD1CD6823F008037C
:103188002B4324F44075D1E90546344323F0040366
:103198002C43446082614A684263036270BD00BF89
:1031A800002C0140036A026A22F48072026270B540
:1031B8004468C2690D6822F4803222F073022A43FF
:1031C8008D6823F4007343EA0523144DA8420FD0F9
:1031D80005F50065A8420BD005F54065A8420FD15A
:1031E80024F44055D1E90546344345EA04140EE079
:1031F800CD6823F4006343EA052323F48063EFE7F3
:10320800074DA842ECD005F58065A842E8D0446097
:10321800C2614A68C263036270BD00BF002C0140EE
:1032280000440140036A026A22F48052026270B5C7
:103238004468C2690D6822F0807222F4E64242EACC
:1032480005228D6823F4005343EA0533134DA84241
:103258000FD005F50065A8420BD005F54065A842DA
:103268000FD124F44045D1E90546344345EA841496
:103278000EE0CD6823F4004343EA053323F480438A
:10328800EFE7074DA842ECD005F58065A842E8D0E5
:103298004460C2614A680264036270BD002C014048
:1032A80000440140036A026A22F48032026230B5A7
:1032B8004468026D0D6822F4803222F070022A43BD
:1032C8008D6823F4003343EA05430F4DA8420FD01D
:1032D80005F50065A8420BD005F54065A84207D062
:1032E80005F58065A84203D005F58065A84204D19C
:1032F8004D6924F4803444EA0524446002654A6830
:103308008264036230BD00BF002C0140036A026A78
:1033180022F48012026230B54468026D0D6822F012
:10332800807222F4E04242EA05228D6823F40013F9
:1033380043EA05530E4DA8420FD005F50065A84293
:103348000BD005F54065A84207D005F58065A84271
:1033580003D005F58065A84204D14D6924F4802482
:1033680044EA8524446002654A68C264036230BD49
:10337800002C014070470000274A036890420ED095
:10338800B0F1804F0BD0A2F59432904207D002F5ED
:103398008062904203D002F59632904208D14A6882
:1033A80023F070031343CA6823F4407313430AE0FD
:1033B8001A4A9042F7D002F580629042F3D002F5A3
:1033C80080629042EFD04A6923F080031343036080
:1033D8008B68C3620B6883620F4B98420FD003F56A
:1033E800006398420BD003F54063984207D003F579
:1033F8008063984203D003F58063984201D10B693A
:103408000363012343610369DB0742BF036923F0B8
:1034180001030361704700BF002C014000400140D8
:1034280010B5044650B390F83D3003F0FF021BB9C5
:1034380080F83C20FDF79AFF0223206884F83D308D
:10344800211DFFF799FF012384F84830002084F8F4
:103458003E3084F83F3084F8403084F8413084F8B6
:10346800423084F8433084F8443084F8453084F896
:10347800463084F8473084F83D3010BD0120FCE721
:1034880010B5044650B390F83D3003F0FF021BB965
:1034980080F83C20FFF76EFF0223206884F83D3057
:1034A800211DFFF769FF012384F84830002084F8C4
:1034B8003E3084F83F3084F8403084F8413084F856
:1034C800423084F8433084F8443084F8453084F836
:1034D800463084F8473084F83D3010BD0120FCE7C1
:1034E800036A026A22F01002026270B544688269B7
:1034F8000D6822F0807222F4E64242EA05228D68C5
:1035080023F0200343EA0513134DA8420FD005F515
:103518000065A8420BD005F54065A8420FD124F4F8
:103528004065D1E90546344345EA84040EE0CD6898
:1035380023F0800343EA051323F04003EFE7074D28
:10354800A842ECD005F58065A842E8D044608261C5
:103558004A688263036270BD002C01400044014048
:1035680038B590F83C30012B044673D001200C2A62
:1035780084F83C004ED008D8042A2BD0082A39D029
:10358800BAB1002384F83C3038BD102A52D0142A2E
:10359800F7D12068FFF7BAFE036D0A6943F40063A8
:1035A8000365036D23F480630365036D43EA022317
:1035B8004EE02068FFF7BCFD83690A6943F0080301
:1035C8008361836923F004038361836913438361FF
:1035D8000020D6E72068FFF783FF83690A6943F470
:1035E80000638361836923F480638361836943EAA9
:1035F8000223ECE72068FFF7D5FDC3690A6943F0A9
:103608000803C361C36923F00403C361C369134397
:10361800C361DDE72068FFF705FEC3690A6943F463
:103628000063C361C36923F48063C361C36943EA68
:103638000223EDE72068FFF735FE036D0A6943F0C2
:1036480008030365036D23F004030365036D134347
:103658000365BDE7022097E710B584680A4324F4A0
:103668007F4442EA03222243826010BD38B590F8B5
:103678003C30012B04464FF0020300F0AA800122DF
:1036880080F83D3080F83C200068534B85682B401B
:1036980083600B68702B56D03CD8502B67D01DD850
:1036A800402B7DD006D8202B0ED00BD833F010023B
:1036B8000AD00122012384F83D30002384F83C30ED
:1036C800104638BD302BF4D1826822F4401222F023
:1036D80070021A4342F0070282603DE0602BE9D194
:1036E800036A026A4D68C96822F0100202628269A0
:1036F80023F0A00322F4704243EA051342EA0132A0
:1037080082610362836823F4401323F0700343F05B
:10371800670320E0B3F5005F20D004D8B3F58052EA
:1037280018BF0122C6E72D498B42CDD006D8B3F188
:10373800101FC9D010398B42BCD1C5E728498B422C
:10374800C2D03031F7E7CB68D1E90121FFF784FF18
:10375800836843F0770383600022ABE7CB68D1E945
:103768000121FFF779FF836843F48043F3E74A6850
:10377800CD68016A036A23F001030362836921F0BB
:103788000A0123F0F00343EA05130A438361026246
:10379800836823F4401323F0700343F05703DAE7F8
:1037A8004A68CD68016A036A23F0010303628369EA
:1037B80021F00A0123F0F00343EA05130A43836169
:1037C8000262836823F4401323F0700343F0470335
:1037D800C1E71A4674E700BF8800CEFF300010002A
:1037E80040001000036A01F01F0110B501248C404D
:1037F80023EA04030362036A8A401A43026210BD83
:10380800082908B518D005D859B1042911D090F85D
:10381800433008E00C2912D01029F8D190F8423032
:1038280001E090F83E30013B18BF012353B101205D
:1038380045E090F83F30F6E790F84030F3E790F82D
:103848004130F0E708294FF002033CD006D861B1B7
:10385800042935D0022380F8433008E00C2935D0FC
:103868001029F7D180F8423001E080F83E30006836
:103878000122FFF7B7FF214B98420FD003F50063F1
:1038880098420BD003F54063984207D003F5806354
:10389800984203D003F5806398421AD1436C43F4ED
:1038A80000434364154B984203D003F500639842E4
:1038B8001ED18268124B1340062B1BD1002008BD75
:1038C80080F83F30D3E780F84030D0E780F84130C7
:1038D800CDE7B0F1804FECD00A4B9842E9D003F520
:1038E80080639842E5D0036843F001030360E5E78D
:1038F800054BF6E7B3F5803FF5D1DFE7002C014033
:10390800070001000004004000400140FFF778BFB5
:1039180030B590F83C30012B04464FF0020037D008
:1039280023681C4D84F83D00AB425A68986803D060
:1039380005F50065AB4203D14D6822F470022A43B5
:103948000D6822F0007222F070022A435A60114A70
:10395800934212D0B3F1804F0FD0A2F59432934224
:103968000BD002F58062934207D002F5963293425B
:1039780003D002F54062934204D1896820F08002A6
:103988000A439A600123002084F83D3084F83C0003
:1039980030BD00BF002C014010B5026852E8003F5E
:1039A80023F4907342E8003102680029F5D10F4CE6
:1039B80002F1080353E8003F234002F1080C4CE8E9
:1039C80000310029F4D1C36E012B07D152E8003F22
:1039D80023F0100342E800310029F7D12023C0F872
:1039E8008C300023C366436710BD00BFFEFFFFEFA6
:1039F80038B50446C0692169A26823680A43616929
:103A08001D680A437C49024329400A431A605A68E0
:103A1800E16822F440520A435A60784AA169934205
:103A28001CBF226A11439A6822F06E4222F4306267
:103A38000A439A60DA6A616A22F00F020A43DA627C
:103A48006F4A934230D16F4BD3F8883003F00303A9
:103A5800022B00F0CC80032B00F0B980012B00F082
:103A6800BD80B0F5004F40F0BF80FFF713FA002883
:103A780066D06168644B626A33F81220B0FBF2F2D8
:103A88004B0803EB42034FF6EF72B3FBF1F3A3F1DC
:103A9800100191421FD823F00F02216892B2C3F39C
:103AA80042031343CB604BE0584A934215D1554B20
:103AB800D3F8883003F00C03082B00F0988008D85E
:103AC800002B40F08B80B0F5004F69D1FFF7D0F99B
:103AD800CDE70C2B7BD0012033E04D4A934209D12E
:103AE800484BD3F8883003F03003202B7FD0E7D938
:103AF800302BEFE7474A934209D1424BD3F888303D
:103B080003F0C003802B72D0DAD9C02BE2E73B4A1E
:103B18009342E0D13B4BD3F8883003F44063B3F5CC
:103B2800006F15D003D843B9FFF7A2F907E0B3F542
:103B3800406FD0D14FF400400BE0FFF781F840B957
:103B480000204FF00113A3660023C4E91D3338BDDC
:103B5800314865682C4B626A05EB450133F8122041
:103B6800B0FBF2F39942B6D8B3EB053FB3D80023C4
:103B78001946FCF72DFB090241EA10616B080002A7
:103B8800C0182A464FF0000341F10001FCF720FB62
:103B9800224BA0F540729A429DD82368D860CFE79F
:103BA800FFF766F90028CBD06368616A164A32F8D5
:103BB8001120B0FBF2F000EB5300B0FBF3F04FF62E
:103BC800EF73A0F11002E6E7FFF73AF8EAE7B0F57D
:103BD800004F3FF44EAF4FF40040E5E7B0F5004F1B
:103BE800F2D1FFF72DF842E7FFF754F9DAE7B0F51D
:103BF800004F0948D8D13CE7F369FFCF0080004067
:103C080000380140001002407A5600080044004085
:103C180000480040004C00400024F400FFFC0F0066
:103C2800836A1A0710B506D50168846B4A6822F4BE
:103C3800004222434A60DC0706D50168C46A4A6824
:103C480022F4003222434A60990706D50168046BC2
:103C58004A6822F4803222434A605A0706D501682E
:103C6800446B4A6822F4802222434A60DC0606D567
:103C78000168C46B8A6822F4805222438A609906DC
:103C880006D50168046C8A6822F4005222438A60CF
:103C98005A060FD50168446C4A6822F48012224300
:103CA800B4F5801F4A6005D14A68846C22F4C002CA
:103CB80022434A601B0606D50268C16C536823F488
:103CC80000230B43536010BD2DE9F843DDF8209025
:103CD80004460D46174698462268D36935EA030319
:103CE8000CBF01230023BB4201D0002022E0B9F120
:103CF800FF3FF2D0FDF738FCA0EB0800484529D873
:103D0800B9F1000F26D021680B685A07E4D5802D39
:103D1800E2D0402DE0D0CE6916F008060CD0082578
:103D280020460D62FFF738FE0023C4F8905084F84F
:103D380084300120BDE8F883CB691B05CCD54FF44E
:103D480000630B622046FFF727FE2023C4F890305B
:103D580084F884600320EDE773B504460026C0F8B4
:103D68009060FDF701FC23681B681A0705461CD5FF
:103D78006FF07E430093324603464FF4001120460D
:103D8800FFF7A2FF88B1226852E8003F23F08003C2
:103D980042E800310029F6D12023C4F888300320F6
:103DA800002384F8843002B070BD23681B685B0769
:103DB80024D56FF07E43009300222B464FF48001F8
:103DC8002046FFF781FFC8B1226852E8003F23F47C
:103DD800907342E8003122680029F5D102F1080306
:103DE80053E8003F23F0010302F1080040E80031E6
:103DF8000029F3D12023C4F88C30D0E720230020F9
:103E0800C4F88830C4F88C30E0662067C8E710B57D
:103E1800044650B3D0F888301BB980F88430FDF7D9
:103E2800E9FA22682423C4F88830136823F00103D0
:103E38001360A36A13B12046FFF7F2FE2046FFF78E
:103E4800D7FD012811D023685A6822F490425A609D
:103E58009A6822F02A029A601A6842F00102204603
:103E68001A60BDE81040FFF777BF012010BD0000C1
:103E7800436E30B52BB90123A0F86A30A0F868303A
:103E880030BD0368094D9A689968094C490FC2F317
:103E980042626B5C615CDB00B3FBF1F3A0F86A3053
:103EA800AB5CA25CDB00B3FBF2F3E7E79A560008D1
:103EB8009256000890F88430012B14D0026824230D
:103EC800C0F888301168136823F00103136021F0EB
:103ED80000510023436611602022C0F8882080F832
:103EE8008430184670470220704770B590F88430C7
:103EF800012B044617D005682423C0F888302E68A3
:103F08002B6823F001032B60AB6823F0604319434F
:103F1800A960FFF7ADFF20232E60C0F8883000208D
:103F280084F8840070BD0220FCE770B590F88430F6
:103F3800012B044617D005682423C0F888302E6862
:103F48002B6823F001032B60AB6823F060631943EF
:103F5800A960FFF78DFF20232E60C0F8883000206D
:103F680084F8840070BD0220FCE72DE9F04F02467A
:103F78000D6895FAA5F44FF0010CB4FA84F4032700
:103F88006FEA050E35FA04F001D1BDE8F08F0CFA9E
:103F980004F32B4069D04868461E012E1ED8966847
:103FA80093FAA3F8B8FA88F84FEA480807FA08F825
:103FB80026EA080893FAA3F98E68B9FA89F94FEA4C
:103FC800490906FA09F646EA0806966056680EEAAE
:103FD8000608CE686E4348EA06065660D66893FA25
:103FE800A3F8B8FA88F84FEA480807FA08F826EA62
:103FF800080893FAA3F90E69B9FA89F94FEA490949
:1040080006FA09F646EA08060228D6601AD1FF2BF6
:10401800D1F814902BD8D2F8208093FAA3F6B6FAE8
:1040280086F64FF00F0AB6000AFA06F628EA0608DE
:1040380093FAA3F6B6FA86F6B60009FA06F646EA41
:1040480008061662D2F8008093FAA3F6B6FA86F646
:10405800760007FA06F628EA060693FAA3F3B3FAF7
:1040680083F35B0098403043106001348AE7D2F84C
:1040780024801E0A96FAA6FABAFA8AFA4FF00F0BAB
:104088004FEA8A0A0BFA0AFA28EA0A0896FAA6F602
:10409800B6FA86F6B60009FA06F949EA080656623B
:1040A800D0E70000114B984213B50AD103F5B83395
:1040B800DA6D42F48072DA65DB6D03F48073019384
:1040C800019B0368CA6823F0004303600B68046817
:1040D80013434A6843EAC2238A6843EA8213044ABC
:1040E800224013430360002002B010BD00A000402E
:1040F8000000F1FF07234FF40032C0E9002310212C
:104108000D23C0E9021370472DE9F047089D0E46BC
:1041180004460F46002B4AD194468C45B2FA82F2E7
:1041280060D942B1C2F12003974020FA03F30CFA98
:1041380002FC1F4394404FEA1C4E1FFA8CF6B7FB53
:10414800FEF1230C0EFB117743EA074301FB06F04F
:1041580098420AD91CEB030301F1FF3780F015815F
:10416800984240F21281023963441B1AA4B2B3FB8D
:10417800FEF00EFB103344EA034400FB06F6A642A9
:104188000AD91CEB040400F1FF3380F00081A64239
:1041980040F2FD806444023840EA0140A41B00213B
:1041A8001DB1D4400023C5E90043BDE8F0878B4228
:1041B80005D90DB1C5E9000100210846F5E7B3FAB4
:1041C80083F1002946D1B34202D3824200F2F5803E
:1041D800841A66EB030201201746002DE5D0C5E9D5
:1041E8000047E2E7002A40F09380A1EB0C034FEA76
:1041F8001C471FFA8CFE0121B3FBF7F607FB1630AC
:10420800230C43EA00430EFB06F0984208D91CEB46
:10421800030306F1FF3802D2984200F2D0804646E6
:104228001B1AA4B2B3FBF7F007FB103344EA0344AC
:104238000EFB00FEA64508D91CEB040400F1FF3371
:1042480002D2A64500F2B6801846A4EB0E0440EA56
:104258000640A5E7C1F120078B4022FA07FC4CEA8B
:10426800030C06FA01FE20FA07F426FA07F344EADB
:104278000E0400FA01F84FEA1C404FEA1449B3FB58
:10428800F0FE1FFA8CF600FB1E3349EA03430EFBCF
:1042980006F9994502FA01F20BD91CEB03030EF15A
:1042A800FF3A80F08580994540F28280AEF1020E97
:1042B8006344A3EB0909A4B2B9FBF0F300FB13991B
:1042C80044EA094403FB06F6A64208D91CEB040499
:1042D80003F1FF3068D2A64266D9023B644443EA40
:1042E8000E40A41BA0FB02E6B4427346B14652D36B
:1042F8004FD05DB1B8EB030264EB090404FA07F789
:1043080022FA01F31F43CC40C5E9007400214CE7B1
:10431800C2F1200120FA01F30CFA02FC26FA01F19D
:10432800964033434FEA1C471FFA8CFEB1FBF7F067
:1043380007FB1016190C41EA064100FB0EF68E42E7
:1043480004FA02F408D91CEB010100F1FF382DD260
:104358008E422BD902386144891B9BB2B1FBF7F618
:1043680007FB161143EA014306FB0EF1994208D9EF
:104378001CEB030306F1FF3814D2994212D9023E0E
:1043880063445B1A46EA004136E73946EDE61846CB
:1043980002E7F045ADD2BEEB020366EB0C0601382E
:1043A800B146A6E74646ECE7034698E74046D3E71A
:1043B800D6467EE76444023847E708460DE7023EE2
:1043C80063442DE7830730B547D0541E002A3ED0FA
:1043D800CAB2034601E0013C39D303F8012B9D071B
:1043E800F9D1032C2CD9CDB205EB05250F2C05EB03
:1043F800054535D9A4F1100222F00F0C03F1100E77
:10440800E6444FEA121C1A46C2E90055C2E90255B1
:1044180010327245F8D10CF1010214F00C0F03EBC5
:10442800021204F00F0C13D0ACF1040323F00303C1
:104438000433134442F8045B9342FBD10CF00304A9
:104448002CB1C9B21C4403F8011BA342FBD130BDF7
:1044580064461346002CF4D1F9E703461446C0E736
:104468001A46A446E0E700BF70B50F4B0F4DAB42AC
:10447800A3EB050607D0B610002455F8043B013419
:104488009847A642F9D800F07FF8094D094B5E1B02
:10449800AB424FEAA60606D0002455F8043B013487
:1044A8009847A642F9D870BDAC560008AC5600082B
:1044B800AC560008B4560008704700BF704700BFEC
:1044C800024B13B1024800F005B870470000000025
:1044D800E9440008002301461A46184600F014B8BB
:1044E80038B5074D074C2C1BA41005D0013C55F8D6
:1044F800043D9847002CF9D1BDE8384000F04AB88F
:10450800B8560008B45600082DE9F8431B4D064676
:10451800286898460F469146FFF7CEFF184B1C684F
:104528001CB3286865681F2D22DC4EB96B1C023548
:10453800636044F82570FFF7C1FF0020BDE8F883E9
:1045480004EB85010123C1F88890D4F88821AB4099
:104558001A43022EC4F88821C1F80881E6D1D4F89C
:104568008C211A43C4F88C21E0E7064C1C60D8E77C
:10457800FFF7A4FF4FF0FF30E0E700BF90000020F6
:10458800D8040020DC040020F8B500BFF8BC08BC43
:104598009E467047F8B500BFF8BC08BC9E467047F9
:1045A80040000000030000000000000001000000BF
:1045B80000000000000000003E2000506F77657288
:1045C800206973737565004572726F72206F63633B
:1045D8007572726564210020205761697420666FC6
:1045E8007220706F77657200486F74706C617465C3
:1045F8002073746172746564007374673A202020B4
:10460800202020202020202020006020007320006F
:1046180025007374673A200054696D656F757428B6
:1046280000732900536E3633506233370070726559
:104638006865617400736F616B696E6700726566A7
:104648006C6F772072697365007265666C6F7700AE
:10465800636F6F6C20646F776E0038306020636F13
:104668006E7374616E74006B656570003230306013
:1046780020636F6E7374616E740010204000000038
:104688000000000000000000000000000000000022
:104698000000000000000000000000000000000012
:1046A800000000180018001800180018001800185A
:1046B80000000018001800000000000000000000C2
:1046C800006600660066006600000000000000004A
:1046D80000000000000000000000000000000000D2
:1046E80000000000006C006C00FE006C006C006CA8
:1046F80000FE006C006C00000000000000000010CC
:104708000010007C00D600D200D0007C00160016F5
:10471800009600D6007C0010001000000000000089
:1047280000000000000000C200C6000C00180030A5
:10473800006000C6008600000000000000000000C5
:1047480000000038006C006C0038007600DC00CCFB
:1047580000CC00CC00760000000000000000000043
:104768000030003000300060000000000000000051
:104778000000000000000000000000000000000031
:104788000000000C0018003000300030003000300D
:1047980000300018000C00000000000000000000BD
:1047A800000000300018000C000C000C000C000C7D
:1047B800000C00180030000000000000000000009D
:1047C80000000000000000000066003C00FF003C04
:1047D800006600000000000000000000000000006B
:1047E800000000000000000000180018007E0018FB
:1047F8000018000000000000000000000000000099
:1048080000000000000000000000000000000000A0
:104818000018001800180030000000000000000018
:10482800000000000000000000000000007E000002
:104838000000000000000000000000000000000070
:104848000000000000000000000000000000000060
:104858000000001800180000000000000000000020
:1048680000000000000000020006000C00180030E4
:10487800006000C000800000000000000000000090
:104888000000007C00C600C600C600C600C600C600
:1048980000C600C6007C0000000000000000000008
:1048A8000000000C001C003C000C000C000C000C6C
:1048B800000C000C000C00000000000000000000CC
:1048C8000000007C00C60006000C001800300060E4
:1048D80000C000C000FE0000000000000000000052
:1048E8000000007C00C600060006003C000600062A
:1048F800000600C6007C0000000000000000000068
:104908000000000E001E0036006600C600FE00060D
:10491800000600060006000000000000000000007D
:10492800000000FE00C000C000C000FC0006000639
:10493800000600C6007C0000000000000000000027
:1049480000000038006000C000C000FC00C600C6BF
:1049580000C600C6007C0000000000000000000047
:10496800000000FE000600060006000C00180018F3
:1049780000180018001800000000000000000000E7
:104988000000007C00C600C600C6007C00C600C649
:1049980000C600C6007C0000000000000000000007
:1049A8000000007C00C600C600C6007E00060006A7
:1049B8000006000C00780000000000000000000065
:1049C80000000000000000180018000000000000AF
:1049D800001800180000000000000000000000009F
:1049E800000000000000001800180000000000008F
:1049F800001800180030000000000000000000004F
:104A0800000000000006000C0018003000600030B4
:104A18000018000C00060000000000000000000064
:104A28000000000000000000007E00000000007E82
:104A3800000000000000000000000000000000006E
:104A480000000000006000300018000C0006000C98
:104A580000180030006000000000000000000000A6
:104A68000000007C00C600C6000C001800180018E2
:104A780000000018001800000000000000000000FE
:104A880000000000007C00C600C600DE00DE00DE7C
:104A980000DC00C0007C00000000000000000000F6
:104AA8000000007C00C600C600C600C600FE00C6A6
:104AB80000C600C600C6000000000000000000009C
:104AC800000000FC00C600C600C600FC00C600C608
:104AD80000C600C600FC0000000000000000000046
:104AE8000000007C00C600C000C000C000C000C0BC
:104AF80000C000C6007C00000000000000000000AC
:104B0800000000F800CC00C600C600C600C600C6FB
:104B180000C600CC00F80000000000000000000003
:104B2800000000FE00C000C000C000F800C000C0C7
:104B380000C000C000FE00000000000000000000EF
:104B4800000000FE00C000C000C000F800C000C0A7
:104B580000C000C000C0000000000000000000000D
:104B68000000007C00C600C000C000C000DE00C617
:104B780000C600C6007A0000000000000000000027
:104B8800000000C600C600C600C600FE00C600C67B
:104B980000C600C600C600000000000000000000BB
:104BA8000000001800180018001800180018001855
:104BB80000180018001800000000000000000000A5
:104BC800000000060006000600060006000600C6F3
:104BD80000C600C6007C00000000000000000000C5
:104BE800000000C600C600CC00D800F000F000D8D5
:104BF80000CC00C600C60000000000000000000055
:104C0800000000C000C000C000C000C000C000C05C
:104C180000C000C000FE000000000000000000000E
:104C2800000000C600EE00FE00FE00D600C600C66A
:104C380000C600C600C6000000000000000000001A
:104C4800000000C600E600F600FE00DE00CE00C64A
:104C580000C600C600C600000000000000000000FA
:104C68000000007C00C600C600C600C600C600C61C
:104C780000C600C6007C0000000000000000000024
:104C8800000000FC00C600C600C600C600FC00C04C
:104C980000C000C000C000000000000000000000CC
:104CA8000000007C00C600C600C600C600C600C6DC
:104CB80000C600C6007C000C0006000000000000D2
:104CC800000000FC00C600C600C600FC00D800CCEE
:104CD80000C600C600C6000000000000000000007A
:104CE8000000007C00C600C000C0007C0006000672
:104CF800000600C6007C0000000000000000000064
:104D0800000000FF0018001800180018001800180C
:104D18000018001800180000000000000000000043
:104D2800000000C600C600C600C600C600C600C611
:104D380000C600C6007C0000000000000000000063
:104D4800000000C600C600C600C600C600C600C6F1
:104D5800006C003800100000000000000000000097
:104D6800000000C600C600C600C600D600D600D6A1
:104D780000FE00EE00C60000000000000000000079
:104D8800000000C600C600C6006C00380038006C81
:104D980000C600C600C600000000000000000000B9
:104DA800000000C300C300C30066003C00180018E0
:104DB80000180018001800000000000000000000A3
:104DC800000000FE00060006000C0018003000601D
:104DD80000C000C000FE000000000000000000004D
:104DE8000000003C0030003000300030003000305F
:104DF80000300030003C000000000000000000000F
:104E0800000000000000008000C0006000300018B2
:104E1800000C000600020000000000000000000076
:104E28000000003C000C000C000C000C000C000CF6
:104E3800000C000C003C0000000000000000001006
:104E48000038006C00C600000000000000000000F0
:104E5800000000000000000000000000000000004A
:104E6800000000000000000000000000000000003A
:104E7800000000000000000000FF0000000000002B
:104E88000038006C006C00380000000000000000D2
:104E9800000000000000000000000000000000000A
:104EA8000000000000000000007C0006007E00C634
:104EB80000C600C6007E00000000000000000000E0
:104EC800000000C000C000C000FC00C600C600C64C
:104ED80000C600C600FC0000000000000000000042
:104EE8000000000000000000007C00C600C000C0F8
:104EF80000C000C6007C00000000000000000000A8
:104F08000000000600060006007E00C600C600C6B7
:104F180000C600C6007E000000000000000000007F
:104F28000000000000000000007C00C600C600FE73
:104F380000C000C0007C000000000000000000006D
:104F48000000003C00600060006000F0006000604D
:104F58000060006000600000000000000000000029
:104F68000000000000000000007E00C600C600C669
:104F780000C600C6007E00060006007C0000000097
:104F8800000000C000C000C000FC00C600C600C68B
:104F980000C600C600C600000000000000000000B7
:104FA8000000001800180000001800180018001869
:104FB80000180018001800000000000000000000A1
:104FC80000000006000600000006000600060006B5
:104FD80000060006000600C600C6007C00000000AF
:104FE800000000C000C000C000C600CC00F800F0FF
:104FF80000D800CC00C6000000000000000000003F
:1050080000000038001800180018001800180018D0
:105018000018001800180000000000000000000040
:10502800000000000000000000FC00FE00D600D6D2
:1050380000D600D600D600000000000000000000E6
:10504800000000000000000000FC00C600C600C60A
:1050580000C600C600C600000000000000000000F6
:105068000000000000000000007C00C600C600C66A
:1050780000C600C6007C0000000000000000000020
:10508800000000000000000000FC00C600C600C6CA
:1050980000C600C600FC00C000C000C00000000040
:1050A8000000000000000000007E00C600C600C628
:1050B80000C600C6007E00060006000600000000CC
:1050C800000000000000000000FC00C600C600C090
:1050D80000C000C000C00000000000000000000088
:1050E8000000000000000000007C00C600C0007C3A
:1050F800000600C6007C0000000000000000000060
:105108000000000800180018007E00180018001899
:1051180000180018000E0000000000000000000049
:10512800000000000000000000C600C600C600C65F
:1051380000C600C6007E000000000000000000005D
:10514800000000000000000000C600C600C600C63F
:10515800006C003800100000000000000000000093
:10516800000000000000000000C600C600D600D6FF
:1051780000FE00EE00C60000000000000000000075
:10518800000000000000000000C6006C0038003875
:105198000038006C00C6000000000000000000009D
:1051A800000000000000000000C600C600C600C6DF
:1051B80000C600C6007E00060006007C0000000055
:1051C800000000000000000000FE000C0018003085
:1051D800006000C000FE00000000000000000000A9
:1051E8000000000E001800180030006000300018A1
:1051F80000180018000E0000000000000000000069
:1052080000000018001800180018001800180018EE
:10521800001800180018000000000000000000003E
:105228000000007000180018000C0006000C0018A0
:1052380000180018007000000000000000000000C6
:105248000000007600DC0000000000000000000004
:1052580000000000000000000000000000006300E3
:10526800FE006400FD006600FC006700FB006900AA
:10527800FA006A00F9006C00F8006E00F700700090
:10528800F6007200F5007400F4007500F300770072
:10529800F2007900F1007B00F0007D00EF00800053
:1052A800EE008200ED008400EC008600EB00880030
:1052B800EA008A00E9008D00E8008F00E70092000C
:1052C800E6009400E5009700E4009900E3009C00E4
:1052D800E2009F00E100A200E000A400DF00A700B8
:1052E800DE00AA00DD00AD00DC00B000DB00B3008A
:1052F800DA00B600D900B900D800BD00D700C00058
:10530800D600C400D500C700D400CB00D300CE001F
:10531800D200D200D100D600D000DA00CF00DE00E3
:10532800CE00E200CD00E600CC00EA00CB00EF00A2
:10533800CA00F300C900F800C800FC00C70001015A
:10534800C6000601C5000B01C4001001C300150109
:10535800C2001B01C1002001C0002501BF002B01B4
:10536800BE003001BD003601BC003C01BB0042015B
:10537800BA004901B9004F01B8005601B7005C01F5
:10538800B6006301B5006A01B4007101B300780189
:10539800B2007F01B1008701B0008F01AF00970113
:1053A800AE009F01AD00A701AC00B001AB00B80191
:1053B800AA00C001A900C901A800D301A700DC0107
:1053C800A600E601A500F001A400FA01A30004026A
:1053D800A2000E02A1001902A00023029F002F02C2
:1053E8009E003A029D0046029C0052029B005E020B
:1053F8009A006B0299007702980084029700910244
:1054080096009E029500AB029400BA029300C8026F
:105418009200D7029100E6029000F5028F00050382
:105428008E0014038D0024038C0034038B00450385
:105438008A0056038900680388007A0387008D0371
:1054480086009F038500B1038400C4038300D7034B
:105458008200EB038100FF03800014047F0029040D
:105468007E003E047D0055047C006B047B008104B3
:105478007A0097047900AE047800C6047700DE0449
:105488007600F60475000E057400270573004005C4
:10549800720059057100740570008E056F00A9052A
:1054A8006E00C6056D00E1056C00FD056B00180671
:1054B8006A0034066900520668006F0667008C06A9
:1054C8006600AA066500C7066400E50663000407CF
:1054D8006200230761004207600061075F008007E0
:1054E8005E00A0075D00C0075C00E1075B000108E3
:1054F8005A002408590044085800640857008408D2
:105508005600A5085500C7085400E80853000909C3
:105518005200290951004A0950006C094F008D09B1
:105528004E00AE094D00CF094C00F0094B00100A9F
:105538004A00310A4900520A4800720A4700920A92
:105548004600B20A4500D20A4400F10A4300110B92
:105558004200300B41004E0B40006D0B3F008B0B9F
:105568003E00A90B3D00C70B3C00E30B3B00000CC1
:105578003A001D0C3900390C3800540C37006F0CF8
:1055880036008A0C3500A40C3400BE0C3300D80C4D
:105598003200F10C3100090D3000210D2F00390DBA
:1055A8002E00500D2D00670D2C007D0D2B00920D47
:1055B8002A00A70D2900BC0D2800D10D2700E40DF5
:1055C8002600F70D25000A0E24001C0E23002F0EBE
:1055D8002200400E2100500E2000600E1F00700EA9
:1055E8001E007F0E1D008E0E1C009D0E1B00AB0EB4
:1055F8001A00B90E1900C60E1800D30E1700DF0ED8
:105608001600EB0E1500F70E1400020F13000D0F15
:105618001200170F1100210F10002B0F0F00340F6D
:105628000E003D0F0D00460F0C004E0F0B00560FDD
:105638000A005E0F0900660F08006D0F0700740F5F
:1056480006007A0F0500810F0400870F03008D0FF5
:105658000200920F0100970F0000000000000102F5
:105668000304000000000000000001020304060714
:105678000809010002000400060008000A000C00E6
:105688001000200040008000000108040204080106
:0C569800010101010103070100000000F6
:0856A4006CEAFF7F0100000029
:0856AC00C94400087502000862
:0456B4004D0200089B
:1056B8002C46000835460008875A0A0F3D46000860
:1056C800B978030545460008D73C7F0051460008D5
:1056D800D72800005846000896C8F6EC624600082D
:1056E8003546000850280A146F460008500000008C
:1056F80000000000000000000000000000000000A2
:10570800000000000000000074460008354600084C
:10571800C85A0A146F460008C800000000000000BC
:105728000000000000000000000000000000000071
:10573800000000000024F400010000001000000038
:04574800D404002065
:040000050800149942
:00000001FF
